{
  "contractName": "IexecOracle",
  "abi": [
    {
      "constant": false,
      "inputs": [],
      "name": "toggleContractActive",
      "outputs": [],
      "payable": false,
      "stateMutability": "nonpayable",
      "type": "function"
    },
    {
      "constant": true,
      "inputs": [
        {
          "name": "dapp",
          "type": "address"
        }
      ],
      "name": "getDappPrice",
      "outputs": [
        {
          "name": "dappPrice",
          "type": "uint256"
        }
      ],
      "payable": false,
      "stateMutability": "view",
      "type": "function"
    },
    {
      "constant": false,
      "inputs": [
        {
          "name": "submitTxHash",
          "type": "bytes32"
        },
        {
          "name": "user",
          "type": "address"
        },
        {
          "name": "dapp",
          "type": "address"
        },
        {
          "name": "status",
          "type": "uint8"
        },
        {
          "name": "stdout",
          "type": "string"
        },
        {
          "name": "stderr",
          "type": "string"
        },
        {
          "name": "uri",
          "type": "string"
        }
      ],
      "name": "submitCallback",
      "outputs": [],
      "payable": false,
      "stateMutability": "nonpayable",
      "type": "function"
    },
    {
      "constant": true,
      "inputs": [
        {
          "name": "submitTxHash",
          "type": "bytes32"
        }
      ],
      "name": "getWork",
      "outputs": [
        {
          "name": "timestamp",
          "type": "uint256"
        },
        {
          "name": "status",
          "type": "uint8"
        },
        {
          "name": "stdout",
          "type": "string"
        },
        {
          "name": "stderr",
          "type": "string"
        },
        {
          "name": "uri",
          "type": "string"
        }
      ],
      "payable": false,
      "stateMutability": "view",
      "type": "function"
    },
    {
      "constant": true,
      "inputs": [],
      "name": "callbackPrice",
      "outputs": [
        {
          "name": "",
          "type": "uint256"
        }
      ],
      "payable": false,
      "stateMutability": "view",
      "type": "function"
    },
    {
      "constant": true,
      "inputs": [
        {
          "name": "dapp",
          "type": "address"
        }
      ],
      "name": "getDapp",
      "outputs": [
        {
          "name": "dappName",
          "type": "string"
        },
        {
          "name": "dappPrice",
          "type": "uint256"
        },
        {
          "name": "provider",
          "type": "address"
        }
      ],
      "payable": false,
      "stateMutability": "view",
      "type": "function"
    },
    {
      "constant": true,
      "inputs": [
        {
          "name": "submitTxHash",
          "type": "bytes32"
        }
      ],
      "name": "getWorkUri",
      "outputs": [
        {
          "name": "uri",
          "type": "string"
        }
      ],
      "payable": false,
      "stateMutability": "view",
      "type": "function"
    },
    {
      "constant": true,
      "inputs": [
        {
          "name": "dapp",
          "type": "address"
        }
      ],
      "name": "getDappName",
      "outputs": [
        {
          "name": "dappName",
          "type": "string"
        }
      ],
      "payable": false,
      "stateMutability": "view",
      "type": "function"
    },
    {
      "constant": true,
      "inputs": [
        {
          "name": "dapp",
          "type": "address"
        }
      ],
      "name": "getProvider",
      "outputs": [
        {
          "name": "provider",
          "type": "address"
        }
      ],
      "payable": false,
      "stateMutability": "view",
      "type": "function"
    },
    {
      "constant": false,
      "inputs": [
        {
          "name": "dappPrice",
          "type": "uint256"
        },
        {
          "name": "dappName",
          "type": "string"
        }
      ],
      "name": "registerDappAndProvider",
      "outputs": [
        {
          "name": "",
          "type": "bool"
        }
      ],
      "payable": false,
      "stateMutability": "nonpayable",
      "type": "function"
    },
    {
      "constant": true,
      "inputs": [],
      "name": "stopped",
      "outputs": [
        {
          "name": "",
          "type": "bool"
        }
      ],
      "payable": false,
      "stateMutability": "view",
      "type": "function"
    },
    {
      "constant": true,
      "inputs": [],
      "name": "owner",
      "outputs": [
        {
          "name": "",
          "type": "address"
        }
      ],
      "payable": false,
      "stateMutability": "view",
      "type": "function"
    },
    {
      "constant": true,
      "inputs": [],
      "name": "iexecOracleEscrow",
      "outputs": [
        {
          "name": "",
          "type": "address"
        }
      ],
      "payable": false,
      "stateMutability": "view",
      "type": "function"
    },
    {
      "constant": true,
      "inputs": [
        {
          "name": "submitTxHash",
          "type": "bytes32"
        }
      ],
      "name": "getWorkStderr",
      "outputs": [
        {
          "name": "stderr",
          "type": "string"
        }
      ],
      "payable": false,
      "stateMutability": "view",
      "type": "function"
    },
    {
      "constant": false,
      "inputs": [
        {
          "name": "_callbackPrice",
          "type": "uint256"
        }
      ],
      "name": "changeCallbackPrice",
      "outputs": [],
      "payable": false,
      "stateMutability": "nonpayable",
      "type": "function"
    },
    {
      "constant": true,
      "inputs": [
        {
          "name": "submitTxHash",
          "type": "bytes32"
        }
      ],
      "name": "getWorkStatus",
      "outputs": [
        {
          "name": "status",
          "type": "uint8"
        }
      ],
      "payable": false,
      "stateMutability": "view",
      "type": "function"
    },
    {
      "constant": true,
      "inputs": [
        {
          "name": "submitTxHash",
          "type": "bytes32"
        }
      ],
      "name": "getWorkStdout",
      "outputs": [
        {
          "name": "stdout",
          "type": "string"
        }
      ],
      "payable": false,
      "stateMutability": "view",
      "type": "function"
    },
    {
      "constant": false,
      "inputs": [
        {
          "name": "param",
          "type": "string"
        }
      ],
      "name": "submit",
      "outputs": [
        {
          "name": "",
          "type": "bool"
        }
      ],
      "payable": true,
      "stateMutability": "payable",
      "type": "function"
    },
    {
      "constant": false,
      "inputs": [
        {
          "name": "rlcTokenAddress",
          "type": "address"
        },
        {
          "name": "amount",
          "type": "uint256"
        }
      ],
      "name": "emergencyERC20Drain",
      "outputs": [],
      "payable": false,
      "stateMutability": "nonpayable",
      "type": "function"
    },
    {
      "constant": false,
      "inputs": [
        {
          "name": "newOwner",
          "type": "address"
        }
      ],
      "name": "transferOwnership",
      "outputs": [],
      "payable": false,
      "stateMutability": "nonpayable",
      "type": "function"
    },
    {
      "constant": true,
      "inputs": [
        {
          "name": "submitTxHash",
          "type": "bytes32"
        }
      ],
      "name": "getWorkTimestamp",
      "outputs": [
        {
          "name": "timestamp",
          "type": "uint256"
        }
      ],
      "payable": false,
      "stateMutability": "view",
      "type": "function"
    },
    {
      "inputs": [
        {
          "name": "_iexecOracleEscrow",
          "type": "address"
        },
        {
          "name": "_callbackPrice",
          "type": "uint256"
        }
      ],
      "payable": false,
      "stateMutability": "nonpayable",
      "type": "constructor"
    },
    {
      "anonymous": false,
      "inputs": [
        {
          "indexed": true,
          "name": "user",
          "type": "address"
        },
        {
          "indexed": true,
          "name": "dapp",
          "type": "address"
        },
        {
          "indexed": true,
          "name": "provider",
          "type": "address"
        },
        {
          "indexed": false,
          "name": "args",
          "type": "string"
        }
      ],
      "name": "Submit",
      "type": "event"
    },
    {
      "anonymous": false,
      "inputs": [
        {
          "indexed": false,
          "name": "submitTxHash",
          "type": "bytes32"
        },
        {
          "indexed": true,
          "name": "user",
          "type": "address"
        },
        {
          "indexed": false,
          "name": "stdout",
          "type": "string"
        },
        {
          "indexed": false,
          "name": "uri",
          "type": "string"
        }
      ],
      "name": "SubmitCallback",
      "type": "event"
    },
    {
      "anonymous": false,
      "inputs": [
        {
          "indexed": true,
          "name": "dapp",
          "type": "address"
        },
        {
          "indexed": true,
          "name": "provider",
          "type": "address"
        },
        {
          "indexed": false,
          "name": "dappPrice",
          "type": "uint256"
        },
        {
          "indexed": false,
          "name": "dappName",
          "type": "string"
        }
      ],
      "name": "Register",
      "type": "event"
    },
    {
      "anonymous": false,
      "inputs": [
        {
          "indexed": false,
          "name": "code",
          "type": "uint256"
        },
        {
          "indexed": false,
          "name": "message",
          "type": "string"
        }
      ],
      "name": "Error",
      "type": "event"
    }
  ],
  "bytecode": "0x606060405260008060146101000a81548160ff021916908315150217905550341561002957600080fd5b6040516040806128a983398101604052808051906020019091908051906020019091905050336000806101000a81548173ffffffffffffffffffffffffffffffffffffffff021916908373ffffffffffffffffffffffffffffffffffffffff16021790555081600160006101000a81548173ffffffffffffffffffffffffffffffffffffffff021916908373ffffffffffffffffffffffffffffffffffffffff1602179055508060028190555050506127c2806100e76000396000f30060606040526004361061011d576000357c0100000000000000000000000000000000000000000000000000000000900463ffffffff1680631385d24c146101225780631692c89b146101375780631b0935661461018457806330266537146102be57806333d4da2a14610452578063496bd3df1461047b5780634bbed29c1461056757806352dd94cc1461060757806355f21eb7146106b95780635993ef531461073257806375f12b21146107b05780638da5cb5b146107dd57806392556147146108325780639e1c466f14610887578063af5a02a414610927578063cddc3b0a1461094a578063d543c28d14610993578063d99a8dc314610a33578063db0e16f114610a9d578063f2fde38b14610adf578063f5923e7e14610b18575b600080fd5b341561012d57600080fd5b610135610b53565b005b341561014257600080fd5b61016e600480803573ffffffffffffffffffffffffffffffffffffffff16906020019091905050610bd5565b6040518082815260200191505060405180910390f35b341561018f57600080fd5b6102bc60048080356000191690602001909190803573ffffffffffffffffffffffffffffffffffffffff1690602001909190803573ffffffffffffffffffffffffffffffffffffffff1690602001909190803560ff1690602001909190803590602001908201803590602001908080601f0160208091040260200160405190810160405280939291908181526020018383808284378201915050505050509190803590602001908201803590602001908080601f0160208091040260200160405190810160405280939291908181526020018383808284378201915050505050509190803590602001908201803590602001908080601f01602080910402602001604051908101604052809392919081815260200183838082843782019150505050505091905050610c21565b005b34156102c957600080fd5b6102e3600480803560001916906020019091905050611224565b604051808681526020018560058111156102f957fe5b60ff168152602001806020018060200180602001848103845287818151815260200191508051906020019080838360005b8381101561034557808201518184015260208101905061032a565b50505050905090810190601f1680156103725780820380516001836020036101000a031916815260200191505b50848103835286818151815260200191508051906020019080838360005b838110156103ab578082015181840152602081019050610390565b50505050905090810190601f1680156103d85780820380516001836020036101000a031916815260200191505b50848103825285818151815260200191508051906020019080838360005b838110156104115780820151818401526020810190506103f6565b50505050905090810190601f16801561043e5780820380516001836020036101000a031916815260200191505b509850505050505050505060405180910390f35b341561045d57600080fd5b6104656114cb565b6040518082815260200191505060405180910390f35b341561048657600080fd5b6104b2600480803573ffffffffffffffffffffffffffffffffffffffff169060200190919050506114d1565b60405180806020018481526020018373ffffffffffffffffffffffffffffffffffffffff1673ffffffffffffffffffffffffffffffffffffffff168152602001828103825285818151815260200191508051906020019080838360005b8381101561052a57808201518184015260208101905061050f565b50505050905090810190601f1680156105575780820380516001836020036101000a031916815260200191505b5094505050505060405180910390f35b341561057257600080fd5b61058c60048080356000191690602001909190505061166d565b6040518080602001828103825283818151815260200191508051906020019080838360005b838110156105cc5780820151818401526020810190506105b1565b50505050905090810190601f1680156105f95780820380516001836020036101000a031916815260200191505b509250505060405180910390f35b341561061257600080fd5b61063e600480803573ffffffffffffffffffffffffffffffffffffffff16906020019091905050611733565b6040518080602001828103825283818151815260200191508051906020019080838360005b8381101561067e578082015181840152602081019050610663565b50505050905090810190601f1680156106ab5780820380516001836020036101000a031916815260200191505b509250505060405180910390f35b34156106c457600080fd5b6106f0600480803573ffffffffffffffffffffffffffffffffffffffff1690602001909190505061181d565b604051808273ffffffffffffffffffffffffffffffffffffffff1673ffffffffffffffffffffffffffffffffffffffff16815260200191505060405180910390f35b341561073d57600080fd5b610796600480803590602001909190803590602001908201803590602001908080601f01602080910402602001604051908101604052809392919081815260200183838082843782019150505050505091905050611889565b604051808215151515815260200191505060405180910390f35b34156107bb57600080fd5b6107c3611b5d565b604051808215151515815260200191505060405180910390f35b34156107e857600080fd5b6107f0611b70565b604051808273ffffffffffffffffffffffffffffffffffffffff1673ffffffffffffffffffffffffffffffffffffffff16815260200191505060405180910390f35b341561083d57600080fd5b610845611b95565b604051808273ffffffffffffffffffffffffffffffffffffffff1673ffffffffffffffffffffffffffffffffffffffff16815260200191505060405180910390f35b341561089257600080fd5b6108ac600480803560001916906020019091905050611bbb565b6040518080602001828103825283818151815260200191508051906020019080838360005b838110156108ec5780820151818401526020810190506108d1565b50505050905090810190601f1680156109195780820380516001836020036101000a031916815260200191505b509250505060405180910390f35b341561093257600080fd5b6109486004808035906020019091905050611c81565b005b341561095557600080fd5b61096f600480803560001916906020019091905050611ce3565b6040518082600581111561097f57fe5b60ff16815260200191505060405180910390f35b341561099e57600080fd5b6109b8600480803560001916906020019091905050611d18565b6040518080602001828103825283818151815260200191508051906020019080838360005b838110156109f85780820151818401526020810190506109dd565b50505050905090810190601f168015610a255780820380516001836020036101000a031916815260200191505b509250505060405180910390f35b610a83600480803590602001908201803590602001908080601f01602080910402602001604051908101604052809392919081815260200183838082843782019150505050505091905050611dde565b604051808215151515815260200191505060405180910390f35b3415610aa857600080fd5b610add600480803573ffffffffffffffffffffffffffffffffffffffff169060200190919080359060200190919050506122dd565b005b3415610aea57600080fd5b610b16600480803573ffffffffffffffffffffffffffffffffffffffff16906020019091905050612425565b005b3415610b2357600080fd5b610b3d6004808035600019169060200190919050506124f5565b6040518082815260200191505060405180910390f35b6000809054906101000a900473ffffffffffffffffffffffffffffffffffffffff1673ffffffffffffffffffffffffffffffffffffffff163373ffffffffffffffffffffffffffffffffffffffff161415610bd357600060149054906101000a900460ff1615600060146101000a81548160ff0219169083151502179055505b565b6000600460008373ffffffffffffffffffffffffffffffffffffffff1673ffffffffffffffffffffffffffffffffffffffff168152602001908152602001600020600101549050919050565b60008060149054906101000a900460ff16151515610c3e57600080fd5b6000809054906101000a900473ffffffffffffffffffffffffffffffffffffffff1673ffffffffffffffffffffffffffffffffffffffff163373ffffffffffffffffffffffffffffffffffffffff16141515610c9657fe5b60006005811115610ca357fe5b856005811115610caf57fe5b14151515610cbc57600080fd5b60006005811115610cc957fe5b600360008a6000191660001916815260200190815260200160002060010160009054906101000a900460ff166005811115610d0057fe5b141515610d0c57600080fd5b42600360008a600019166000191681526020019081526020016000206000018190555084600360008a6000191660001916815260200190815260200160002060010160006101000a81548160ff02191690836005811115610d6957fe5b021790555083600360008a600019166000191681526020019081526020016000206002019080519060200190610da09291906126dd565b5082600360008a600019166000191681526020019081526020016000206003019080519060200190610dd39291906126dd565b5081600360008a600019166000191681526020019081526020016000206004019080519060200190610e069291906126dd565b508673ffffffffffffffffffffffffffffffffffffffff167f06239fa7a3489329ee223aa89190ea8412cf24599da9c43000047862209fbe3b8986856040518084600019166000191681526020018060200180602001838103835285818151815260200191508051906020019080838360005b83811015610e94578082015181840152602081019050610e79565b50505050905090810190601f168015610ec15780820380516001836020036101000a031916815260200191505b50838103825284818151815260200191508051906020019080838360005b83811015610efa578082015181840152602081019050610edf565b50505050905090810190601f168015610f275780820380516001836020036101000a031916815260200191505b509550505050505060405180910390a2610f44888789878661251d565b600460008773ffffffffffffffffffffffffffffffffffffffff1673ffffffffffffffffffffffffffffffffffffffff168152602001908152602001600020600101549050600081111561121a5760046005811115610f9f57fe5b856005811115610fab57fe5b141561110757600160009054906101000a900473ffffffffffffffffffffffffffffffffffffffff1673ffffffffffffffffffffffffffffffffffffffff1663bfd24f40600460008973ffffffffffffffffffffffffffffffffffffffff1673ffffffffffffffffffffffffffffffffffffffff16815260200190815260200160002060020160009054906101000a900473ffffffffffffffffffffffffffffffffffffffff16836000604051602001526040518363ffffffff167c0100000000000000000000000000000000000000000000000000000000028152600401808373ffffffffffffffffffffffffffffffffffffffff1673ffffffffffffffffffffffffffffffffffffffff16815260200182815260200192505050602060405180830381600087803b15156110e057600080fd5b6102c65a03f115156110f157600080fd5b50505060405180519050151561110657600080fd5b5b60058081111561111357fe5b85600581111561111f57fe5b141561121957600160009054906101000a900473ffffffffffffffffffffffffffffffffffffffff1673ffffffffffffffffffffffffffffffffffffffff1663bfd24f4088836000604051602001526040518363ffffffff167c0100000000000000000000000000000000000000000000000000000000028152600401808373ffffffffffffffffffffffffffffffffffffffff1673ffffffffffffffffffffffffffffffffffffffff16815260200182815260200192505050602060405180830381600087803b15156111f257600080fd5b6102c65a03f1151561120357600080fd5b50505060405180519050151561121857600080fd5b5b5b5050505050505050565b60008061122f61275d565b61123761275d565b61123f61275d565b6003600087600019166000191681526020019081526020016000206000015460036000886000191660001916815260200190815260200160002060010160009054906101000a900460ff16600360008960001916600019168152602001908152602001600020600201600360008a60001916600019168152602001908152602001600020600301600360008b60001916600019168152602001908152602001600020600401828054600181600116156101000203166002900480601f0160208091040260200160405190810160405280929190818152602001828054600181600116156101000203166002900480156113795780601f1061134e57610100808354040283529160200191611379565b820191906000526020600020905b81548152906001019060200180831161135c57829003601f168201915b50505050509250818054600181600116156101000203166002900480601f0160208091040260200160405190810160405280929190818152602001828054600181600116156101000203166002900480156114155780601f106113ea57610100808354040283529160200191611415565b820191906000526020600020905b8154815290600101906020018083116113f857829003601f168201915b50505050509150808054600181600116156101000203166002900480601f0160208091040260200160405190810160405280929190818152602001828054600181600116156101000203166002900480156114b15780601f10611486576101008083540402835291602001916114b1565b820191906000526020600020905b81548152906001019060200180831161149457829003601f168201915b505050505090509450945094509450945091939590929450565b60025481565b6114d961275d565b600080600460008573ffffffffffffffffffffffffffffffffffffffff1673ffffffffffffffffffffffffffffffffffffffff168152602001908152602001600020600001600460008673ffffffffffffffffffffffffffffffffffffffff1673ffffffffffffffffffffffffffffffffffffffff16815260200190815260200160002060010154600460008773ffffffffffffffffffffffffffffffffffffffff1673ffffffffffffffffffffffffffffffffffffffff16815260200190815260200160002060020160009054906101000a900473ffffffffffffffffffffffffffffffffffffffff16828054600181600116156101000203166002900480601f0160208091040260200160405190810160405280929190818152602001828054600181600116156101000203166002900480156116595780601f1061162e57610100808354040283529160200191611659565b820191906000526020600020905b81548152906001019060200180831161163c57829003601f168201915b505050505092509250925092509193909250565b61167561275d565b6003600083600019166000191681526020019081526020016000206004018054600181600116156101000203166002900480601f0160208091040260200160405190810160405280929190818152602001828054600181600116156101000203166002900480156117275780601f106116fc57610100808354040283529160200191611727565b820191906000526020600020905b81548152906001019060200180831161170a57829003601f168201915b50505050509050919050565b61173b61275d565b600460008373ffffffffffffffffffffffffffffffffffffffff1673ffffffffffffffffffffffffffffffffffffffff1681526020019081526020016000206000018054600181600116156101000203166002900480601f0160208091040260200160405190810160405280929190818152602001828054600181600116156101000203166002900480156118115780601f106117e657610100808354040283529160200191611811565b820191906000526020600020905b8154815290600101906020018083116117f457829003601f168201915b50505050509050919050565b6000600460008373ffffffffffffffffffffffffffffffffffffffff1673ffffffffffffffffffffffffffffffffffffffff16815260200190815260200160002060020160009054906101000a900473ffffffffffffffffffffffffffffffffffffffff169050919050565b60008060149054906101000a900460ff161515156118a657600080fd5b6000600460003373ffffffffffffffffffffffffffffffffffffffff1673ffffffffffffffffffffffffffffffffffffffff16815260200190815260200160002060020160009054906101000a900473ffffffffffffffffffffffffffffffffffffffff1673ffffffffffffffffffffffffffffffffffffffff1614151561192a57fe5b3273ffffffffffffffffffffffffffffffffffffffff163373ffffffffffffffffffffffffffffffffffffffff161415151561196257fe5b32600460003373ffffffffffffffffffffffffffffffffffffffff1673ffffffffffffffffffffffffffffffffffffffff16815260200190815260200160002060020160006101000a81548173ffffffffffffffffffffffffffffffffffffffff021916908373ffffffffffffffffffffffffffffffffffffffff16021790555082600460003373ffffffffffffffffffffffffffffffffffffffff1673ffffffffffffffffffffffffffffffffffffffff1681526020019081526020016000206001018190555081600460003373ffffffffffffffffffffffffffffffffffffffff1673ffffffffffffffffffffffffffffffffffffffff1681526020019081526020016000206000019080519060200190611a809291906126dd565b503273ffffffffffffffffffffffffffffffffffffffff163373ffffffffffffffffffffffffffffffffffffffff167faf5012f155004010b6b3ae7a6355778f4d22bb65d1ca74541e78696e41a448c085856040518083815260200180602001828103825283818151815260200191508051906020019080838360005b83811015611b18578082015181840152602081019050611afd565b50505050905090810190601f168015611b455780820380516001836020036101000a031916815260200191505b50935050505060405180910390a36001905092915050565b600060149054906101000a900460ff1681565b6000809054906101000a900473ffffffffffffffffffffffffffffffffffffffff1681565b600160009054906101000a900473ffffffffffffffffffffffffffffffffffffffff1681565b611bc361275d565b6003600083600019166000191681526020019081526020016000206003018054600181600116156101000203166002900480601f016020809104026020016040519081016040528092919081815260200182805460018160011615610100020316600290048015611c755780601f10611c4a57610100808354040283529160200191611c75565b820191906000526020600020905b815481529060010190602001808311611c5857829003601f168201915b50505050509050919050565b6000809054906101000a900473ffffffffffffffffffffffffffffffffffffffff1673ffffffffffffffffffffffffffffffffffffffff163373ffffffffffffffffffffffffffffffffffffffff16141515611cd957fe5b8060028190555050565b600060036000836000191660001916815260200190815260200160002060010160009054906101000a900460ff169050919050565b611d2061275d565b6003600083600019166000191681526020019081526020016000206002018054600181600116156101000203166002900480601f016020809104026020016040519081016040528092919081815260200182805460018160011615610100020316600290048015611dd25780601f10611da757610100808354040283529160200191611dd2565b820191906000526020600020905b815481529060010190602001808311611db557829003601f168201915b50505050509050919050565b6000806000600460003373ffffffffffffffffffffffffffffffffffffffff1673ffffffffffffffffffffffffffffffffffffffff16815260200190815260200160002060020160009054906101000a900473ffffffffffffffffffffffffffffffffffffffff1673ffffffffffffffffffffffffffffffffffffffff1614151515611e6657fe5b600254341015611f32577fc548eaddad03c946ad5228a88cfbd752439e312a7b29b7e8791a0b5fe143584c60016040518082815260200180602001828103825260548152602001807f6d73672e76616c7565206e656564656420666f72207375626d69742063616c6c81526020017f6261636b2067617320697320746f6f206c6f772e20436865636b20746865206381526020017f757272656e742063616c6c6261636b50726963650000000000000000000000008152506060019250505060405180910390a1600080fd5b670de0b6b3a764000034101515612005577fc548eaddad03c946ad5228a88cfbd752439e312a7b29b7e8791a0b5fe143584c60026040518082815260200180602001828103825260508152602001807f6d73672e76616c7565206e656564656420666f72207375626d69742063616c6c81526020017f6261636b2067617320697320746f6f20686967682e204d757374206265206c6f81526020017f776572207468616e2031206574686572000000000000000000000000000000008152506060019250505060405180910390a1600080fd5b600060149054906101000a900460ff1615151561202157600080fd5b600460003373ffffffffffffffffffffffffffffffffffffffff1673ffffffffffffffffffffffffffffffffffffffff168152602001908152602001600020600101549050600081111561212f57600160009054906101000a900473ffffffffffffffffffffffffffffffffffffffff1673ffffffffffffffffffffffffffffffffffffffff1663bbc88c5d826000604051602001526040518263ffffffff167c010000000000000000000000000000000000000000000000000000000002815260040180828152602001915050602060405180830381600087803b151561210857600080fd5b6102c65a03f1151561211957600080fd5b50505060405180519050151561212e57600080fd5b5b6000809054906101000a900473ffffffffffffffffffffffffffffffffffffffff1673ffffffffffffffffffffffffffffffffffffffff166108fc349081150290604051600060405180830381858888f19350505050151561219057600080fd5b600460003373ffffffffffffffffffffffffffffffffffffffff1673ffffffffffffffffffffffffffffffffffffffff16815260200190815260200160002060020160009054906101000a900473ffffffffffffffffffffffffffffffffffffffff1673ffffffffffffffffffffffffffffffffffffffff163373ffffffffffffffffffffffffffffffffffffffff163273ffffffffffffffffffffffffffffffffffffffff167f743a962df271a2e268a671fb94be36697104681af61a64ccdf1dcf924035fdcd866040518080602001828103825283818151815260200191508051906020019080838360005b8381101561229957808201518184015260208101905061227e565b50505050905090810190601f1680156122c65780820380516001836020036101000a031916815260200191505b509250505060405180910390a46001915050919050565b60008060009054906101000a900473ffffffffffffffffffffffffffffffffffffffff1673ffffffffffffffffffffffffffffffffffffffff163373ffffffffffffffffffffffffffffffffffffffff161415612420578290508073ffffffffffffffffffffffffffffffffffffffff1663a9059cbb6000809054906101000a900473ffffffffffffffffffffffffffffffffffffffff16846000604051602001526040518363ffffffff167c0100000000000000000000000000000000000000000000000000000000028152600401808373ffffffffffffffffffffffffffffffffffffffff1673ffffffffffffffffffffffffffffffffffffffff16815260200182815260200192505050602060405180830381600087803b151561240357600080fd5b6102c65a03f1151561241457600080fd5b50505060405180519050505b505050565b6000809054906101000a900473ffffffffffffffffffffffffffffffffffffffff1673ffffffffffffffffffffffffffffffffffffffff163373ffffffffffffffffffffffffffffffffffffffff1614156124f257600073ffffffffffffffffffffffffffffffffffffffff168173ffffffffffffffffffffffffffffffffffffffff161415156124f157806000806101000a81548173ffffffffffffffffffffffffffffffffffffffff021916908373ffffffffffffffffffffffffffffffffffffffff1602179055505b5b50565b6000600360008360001916600019168152602001908152602001600020600001549050919050565b60008490508073ffffffffffffffffffffffffffffffffffffffff166310a9f201878686866000604051602001526040518563ffffffff167c01000000000000000000000000000000000000000000000000000000000281526004018085600019166000191681526020018473ffffffffffffffffffffffffffffffffffffffff1673ffffffffffffffffffffffffffffffffffffffff1681526020018060200180602001838103835285818151815260200191508051906020019080838360005b838110156125fa5780820151818401526020810190506125df565b50505050905090810190601f1680156126275780820380516001836020036101000a031916815260200191505b50838103825284818151815260200191508051906020019080838360005b83811015612660578082015181840152602081019050612645565b50505050905090810190601f16801561268d5780820380516001836020036101000a031916815260200191505b509650505050505050602060405180830381600087803b15156126af57600080fd5b6102c65a03f115156126c057600080fd5b5050506040518051905015156126d557600080fd5b505050505050565b828054600181600116156101000203166002900490600052602060002090601f016020900481019282601f1061271e57805160ff191683800117855561274c565b8280016001018555821561274c579182015b8281111561274b578251825591602001919060010190612730565b5b5090506127599190612771565b5090565b602060405190810160405280600081525090565b61279391905b8082111561278f576000816000905550600101612777565b5090565b905600a165627a7a7230582021f90e1bd3a0171ed2a77382449792421f1cbf0c3ac5a428be0bd73ffa9979a90029",
  "source": "pragma solidity ^0.4.18;\n//v1.1.1\nimport './IexecOracleAPI.sol';\nimport './IexecOracleEscrow.sol';\nimport './IexecLib.sol';\nimport \"rlc-token/contracts/Ownable.sol\";\nimport \"rlc-token/contracts/RLC.sol\";\n\n\ncontract IexecOracle is Ownable {\n\n\n    bool public stopped = false;\n    /*\n     * EVENTS AND MODIFIERS\n     */\n    event Submit(address indexed user, address indexed dapp, address indexed provider, string args); // special log to launch process\n    event SubmitCallback(bytes32 submitTxHash, address indexed user, string stdout, string uri);\n    event Register(address indexed dapp, address indexed provider,uint256 dappPrice, string dappName);\n    event Error(uint code,string message);\n\n    IexecOracleEscrow public iexecOracleEscrow;\n\n    uint256 public callbackPrice;\n\n    struct Work {\n      uint256 timestamp;\n      IexecLib.StatusEnum status;\n      string stdout;\n      string stderr;\n      string uri;\n    }\n    //mapping (submitTxHash => Work) workRegistry;\n    mapping (bytes32 => Work) workRegistry;\n\n    struct Dapp {\n      string dappName;\n      uint256 dappPrice;\n      address provider;\n    }\n\n    //mapping (dapp address => Dapp Struct)\n    mapping (address => Dapp ) dappRegistry ;\n\n    modifier stopInEmergency {\n      require(!stopped);\n      _;\n    }\n\n    modifier onlyRegistered(){\n        assert(dappRegistry[msg.sender].provider != 0x0);\n        _;\n    }\n\n    modifier checkCallbackPrice(){\n        if(msg.value < callbackPrice){\n          Error(1,\"msg.value needed for submit callback gas is too low. Check the current callbackPrice\");\n          revert();\n        }\n        if(msg.value >= 1 ether){\n          Error(2,\"msg.value needed for submit callback gas is too high. Must be lower than 1 ether\");\n          revert();\n        }\n        _;\n    }\n\n    //constructor\n    function IexecOracle(address _iexecOracleEscrow,uint256 _callbackPrice) public {\n        iexecOracleEscrow=IexecOracleEscrow(_iexecOracleEscrow);\n        callbackPrice=_callbackPrice;\n    }\n\n    // Circuit Breakers\n    function toggleContractActive() onlyOwner public\n    {\n        stopped = !stopped;\n    }\n\n    function registerDappAndProvider(uint256 dappPrice,string dappName) stopInEmergency public  returns (bool) {\n        assert(dappRegistry[msg.sender].provider == 0x0);\n        assert(msg.sender != tx.origin);\n        dappRegistry[msg.sender].provider=tx.origin;\n        dappRegistry[msg.sender].dappPrice=dappPrice;\n        dappRegistry[msg.sender].dappName=dappName;\n        Register(msg.sender,tx.origin,dappPrice,dappName);\n        return true;\n    }\n\n    function getDapp(address dapp) constant public returns (string dappName, uint256 dappPrice, address provider) {\n        return (\n        dappRegistry[dapp].dappName,\n        dappRegistry[dapp].dappPrice,\n        dappRegistry[dapp].provider\n        );\n    }\n\n    function getProvider(address dapp) constant public returns (address provider) {\n        return dappRegistry[dapp].provider;\n    }\n\n    function getDappPrice(address dapp) constant public returns (uint256 dappPrice) {\n        return dappRegistry[dapp].dappPrice;\n    }\n\n    function getDappName(address dapp) constant public returns (string dappName) {\n        return dappRegistry[dapp].dappName;\n    }\n\n    function getWork(bytes32 submitTxHash) constant public returns (uint256 timestamp, IexecLib.StatusEnum status, string stdout, string stderr, string uri) {\n        return (\n        workRegistry[submitTxHash].timestamp,\n        workRegistry[submitTxHash].status,\n        workRegistry[submitTxHash].stdout,\n        workRegistry[submitTxHash].stderr,\n        workRegistry[submitTxHash].uri\n        );\n    }\n\n    function getWorkTimestamp(bytes32 submitTxHash) constant public returns (uint256 timestamp) {\n        return workRegistry[submitTxHash].timestamp;\n    }\n\n    function getWorkStatus(bytes32 submitTxHash) constant public returns (IexecLib.StatusEnum status) {\n        return workRegistry[submitTxHash].status;\n    }\n\n    function getWorkStdout(bytes32 submitTxHash) constant public returns (string stdout) {\n        return workRegistry[submitTxHash].stdout;\n    }\n\n    function getWorkStderr(bytes32 submitTxHash) constant public returns (string stderr) {\n        return workRegistry[submitTxHash].stderr;\n    }\n\n    function getWorkUri(bytes32 submitTxHash) constant public returns (string uri) {\n        return workRegistry[submitTxHash].uri;\n    }\n\n    function submit(string param) onlyRegistered  checkCallbackPrice stopInEmergency public payable returns (bool){\n        uint256 dappPrice=dappRegistry[msg.sender].dappPrice;\n        if(dappPrice > 0 ){\n            //transfert user RLC deplosit to iexecOracleEscrow\n            require(iexecOracleEscrow.rlcDeposit(dappPrice));\n        }\n        owner.transfer(msg.value);\n        Submit(tx.origin, msg.sender,dappRegistry[msg.sender].provider, param);\n        return true;\n    }\n\n    function submitCallback(bytes32 submitTxHash, address user, address dapp, IexecLib.StatusEnum status, string stdout, string stderr, string uri) stopInEmergency public {\n        assert(msg.sender == owner);\n        //set StatusEnum.UNSET forbidden\n        require(status != IexecLib.StatusEnum.UNSET);\n        //only one call is consider if 2 bridges are up thanks to the following check\n        require(workRegistry[submitTxHash].status == IexecLib.StatusEnum.UNSET);\n        workRegistry[submitTxHash].timestamp=now;\n        workRegistry[submitTxHash].status = status;\n        workRegistry[submitTxHash].stdout = stdout;\n        workRegistry[submitTxHash].stderr = stderr;\n        workRegistry[submitTxHash].uri = uri;\n        SubmitCallback(submitTxHash,user,stdout,uri);\n        iexecSubmitCallback(submitTxHash,dapp,user,stdout,uri);\n        uint256 dappPrice=dappRegistry[dapp].dappPrice;\n        if(dappPrice > 0 ){\n            if(status == IexecLib.StatusEnum.COMPLETED){\n                require(iexecOracleEscrow.rlcPayment(dappRegistry[dapp].provider,dappPrice));\n            }\n            if(status == IexecLib.StatusEnum.ERROR){\n                require(iexecOracleEscrow.rlcPayment(user,dappPrice));\n            }\n        }\n    }\n\n    function changeCallbackPrice(uint256 _callbackPrice) public {\n        assert(msg.sender == owner);\n        callbackPrice=_callbackPrice;\n    }\n\n    function iexecSubmitCallback(bytes32 submitTxHash, address dapp, address user, string stdout, string uri) internal {\n        IexecOracleAPI iexecOracleAPI = IexecOracleAPI(dapp);\n        require(iexecOracleAPI.iexecSubmitCallback(submitTxHash,user,stdout,uri));\n    }\n\n    /**\n    * transfer to owner any tokens send by mistake on this contracts\n    */\n    function emergencyERC20Drain(address rlcTokenAddress, uint amount) public onlyOwner {\n        RLC rlcToken = RLC(rlcTokenAddress);\n        rlcToken.transfer(owner, amount);\n    }\n\n}\n",
  "sourcePath": "/home/hantong/Documents/iexec-oracle-contract/contracts/IexecOracle.sol",
  "compiler": {
    "name": "solc",
    "version": "0.4.18+commit.9cf6e910.Emscripten.clang"
  },
  "schemaVersion": "1.0.1",
  "updatedAt": "2018-03-14T18:30:59.101Z"
}